{
  "contractName": "Consortium",
  "abi": [
    {
      "constant": true,
      "inputs": [
        {
          "name": "",
          "type": "address"
        }
      ],
      "name": "responses",
      "outputs": [
        {
          "name": "",
          "type": "bytes32"
        }
      ],
      "payable": false,
      "stateMutability": "view",
      "type": "function",
      "signature": "0x0ea65648"
    },
    {
      "constant": true,
      "inputs": [],
      "name": "chairperson",
      "outputs": [
        {
          "name": "",
          "type": "address"
        }
      ],
      "payable": false,
      "stateMutability": "view",
      "type": "function",
      "signature": "0x2e4176cf"
    },
    {
      "constant": true,
      "inputs": [
        {
          "name": "",
          "type": "address"
        }
      ],
      "name": "airlines",
      "outputs": [
        {
          "name": "name",
          "type": "bytes32"
        },
        {
          "name": "isActive",
          "type": "bool"
        },
        {
          "name": "escrowAmount",
          "type": "uint256"
        }
      ],
      "payable": false,
      "stateMutability": "view",
      "type": "function",
      "signature": "0x41684769"
    },
    {
      "constant": true,
      "inputs": [
        {
          "name": "",
          "type": "address"
        }
      ],
      "name": "requests",
      "outputs": [
        {
          "name": "",
          "type": "bytes32"
        }
      ],
      "payable": false,
      "stateMutability": "view",
      "type": "function",
      "signature": "0x74adad1d"
    },
    {
      "inputs": [],
      "payable": true,
      "stateMutability": "payable",
      "type": "constructor",
      "signature": "constructor"
    },
    {
      "anonymous": false,
      "inputs": [
        {
          "indexed": false,
          "name": "airline",
          "type": "address"
        },
        {
          "indexed": false,
          "name": "data",
          "type": "string"
        }
      ],
      "name": "Registered",
      "type": "event",
      "signature": "0xb3eccf73f39b1c07947c780b2b39df2a1bb058b4037b0a42d0881ca1a028a132"
    },
    {
      "anonymous": false,
      "inputs": [
        {
          "indexed": false,
          "name": "airline",
          "type": "address"
        },
        {
          "indexed": false,
          "name": "data",
          "type": "string"
        }
      ],
      "name": "RequestRecorded",
      "type": "event",
      "signature": "0x9549e8c16d9e94dec2c81f831f8d2ff9b8412f3ef2bd1758bfdaba09866e33ff"
    },
    {
      "anonymous": false,
      "inputs": [
        {
          "indexed": false,
          "name": "airline",
          "type": "address"
        },
        {
          "indexed": false,
          "name": "data",
          "type": "string"
        }
      ],
      "name": "ResponseRecorded",
      "type": "event",
      "signature": "0x49284608e2bcec158fa3c9ebd3334801dea6d98fbbb484600071dca30625f6d1"
    },
    {
      "constant": false,
      "inputs": [],
      "name": "registerAirline",
      "outputs": [],
      "payable": true,
      "stateMutability": "payable",
      "type": "function",
      "signature": "0x63e29a3f"
    },
    {
      "constant": false,
      "inputs": [
        {
          "name": "airline",
          "type": "address"
        }
      ],
      "name": "unregisterAirline",
      "outputs": [],
      "payable": true,
      "stateMutability": "payable",
      "type": "function",
      "signature": "0x183c164e"
    },
    {
      "constant": false,
      "inputs": [
        {
          "name": "to",
          "type": "address"
        },
        {
          "name": "details",
          "type": "bytes32"
        }
      ],
      "name": "recordRequests",
      "outputs": [],
      "payable": false,
      "stateMutability": "nonpayable",
      "type": "function",
      "signature": "0xb032d243"
    },
    {
      "constant": false,
      "inputs": [
        {
          "name": "to",
          "type": "address"
        },
        {
          "name": "details",
          "type": "bytes32"
        }
      ],
      "name": "recordResponses",
      "outputs": [],
      "payable": false,
      "stateMutability": "nonpayable",
      "type": "function",
      "signature": "0x3807566f"
    }
  ],
  "bytecode": "0x6080604052336000806101000a81548173ffffffffffffffffffffffffffffffffffffffff021916908373ffffffffffffffffffffffffffffffffffffffff160217905550610e6d806100536000396000f3fe60806040526004361061008e576000357c0100000000000000000000000000000000000000000000000000000000900463ffffffff1680630ea6564814610093578063183c164e146100f85780632e4176cf1461013c5780633807566f1461019357806341684769146101ee57806363e29a3f1461026557806374adad1d1461026f578063b032d243146102d4575b600080fd5b34801561009f57600080fd5b506100e2600480360360208110156100b657600080fd5b81019080803573ffffffffffffffffffffffffffffffffffffffff16906020019092919050505061032f565b6040518082815260200191505060405180910390f35b61013a6004803603602081101561010e57600080fd5b81019080803573ffffffffffffffffffffffffffffffffffffffff169060200190929190505050610347565b005b34801561014857600080fd5b50610151610608565b604051808273ffffffffffffffffffffffffffffffffffffffff1673ffffffffffffffffffffffffffffffffffffffff16815260200191505060405180910390f35b34801561019f57600080fd5b506101ec600480360360408110156101b657600080fd5b81019080803573ffffffffffffffffffffffffffffffffffffffff1690602001909291908035906020019092919050505061062d565b005b3480156101fa57600080fd5b5061023d6004803603602081101561021157600080fd5b81019080803573ffffffffffffffffffffffffffffffffffffffff16906020019092919050505061090c565b6040518084815260200183151515158152602001828152602001935050505060405180910390f35b61026d610943565b005b34801561027b57600080fd5b506102be6004803603602081101561029257600080fd5b81019080803573ffffffffffffffffffffffffffffffffffffffff169060200190929190505050610b4a565b6040518082815260200191505060405180910390f35b3480156102e057600080fd5b5061032d600480360360408110156102f757600080fd5b81019080803573ffffffffffffffffffffffffffffffffffffffff16906020019092919080359060200190929190505050610b62565b005b60026020528060005260406000206000915090505481565b336000809054906101000a900473ffffffffffffffffffffffffffffffffffffffff1673ffffffffffffffffffffffffffffffffffffffff168173ffffffffffffffffffffffffffffffffffffffff1614151561040c576040517f08c379a000000000000000000000000000000000000000000000000000000000815260040180806020018281038252601d8152602001807f4f6e6c79206368616972706572736f6e2063616e20726567697374657200000081525060200191505060405180910390fd5b81600360008273ffffffffffffffffffffffffffffffffffffffff1673ffffffffffffffffffffffffffffffffffffffff16815260200190815260200160002060010160009054906101000a900460ff1615156104d1576040517f08c379a00000000000000000000000000000000000000000000000000000000081526004018080602001828103825260168152602001807f4169726c696e65206e6f7420616374697665207965740000000000000000000081525060200191505060405180910390fd5b6000600360008573ffffffffffffffffffffffffffffffffffffffff1673ffffffffffffffffffffffffffffffffffffffff16815260200190815260200160002060010160006101000a81548160ff0219169083151502179055506000600360008573ffffffffffffffffffffffffffffffffffffffff1673ffffffffffffffffffffffffffffffffffffffff1681526020019081526020016000206002015490506000600360008673ffffffffffffffffffffffffffffffffffffffff1673ffffffffffffffffffffffffffffffffffffffff168152602001908152602001600020600201819055508373ffffffffffffffffffffffffffffffffffffffff166108fc829081150290604051600060405180830381858888f19350505050158015610601573d6000803e3d6000fd5b5050505050565b6000809054906101000a900473ffffffffffffffffffffffffffffffffffffffff1681565b33600360008273ffffffffffffffffffffffffffffffffffffffff1673ffffffffffffffffffffffffffffffffffffffff16815260200190815260200160002060010160009054906101000a900460ff1615156106f2576040517f08c379a00000000000000000000000000000000000000000000000000000000081526004018080602001828103825260168152602001807f4169726c696e65206e6f7420616374697665207965740000000000000000000081525060200191505060405180910390fd5b82600360008273ffffffffffffffffffffffffffffffffffffffff1673ffffffffffffffffffffffffffffffffffffffff16815260200190815260200160002060010160009054906101000a900460ff1615156107b7576040517f08c379a00000000000000000000000000000000000000000000000000000000081526004018080602001828103825260168152602001807f4169726c696e65206e6f7420616374697665207965740000000000000000000081525060200191505060405180910390fd5b60008484604051602001808373ffffffffffffffffffffffffffffffffffffffff1673ffffffffffffffffffffffffffffffffffffffff166c010000000000000000000000000281526014018281526020019250505060405160208183030381529060405280519060200120905080600260003373ffffffffffffffffffffffffffffffffffffffff1673ffffffffffffffffffffffffffffffffffffffff168152602001908152602001600020819055507f49284608e2bcec158fa3c9ebd3334801dea6d98fbbb484600071dca30625f6d185604051808273ffffffffffffffffffffffffffffffffffffffff1673ffffffffffffffffffffffffffffffffffffffff16815260200180602001828103825260158152602001807f5265636f72646564205375636365737366756c6c7900000000000000000000008152506020019250505060405180910390a15050505050565b60036020528060005260406000206000915090508060000154908060010160009054906101000a900460ff16908060020154905083565b33600360008273ffffffffffffffffffffffffffffffffffffffff1673ffffffffffffffffffffffffffffffffffffffff16815260200190815260200160002060010160009054906101000a900460ff16151515610a09576040517f08c379a00000000000000000000000000000000000000000000000000000000081526004018080602001828103825260178152602001807f4169726c696e6520616c72656164792070726573656e7400000000000000000081525060200191505060405180910390fd5b6001600360003373ffffffffffffffffffffffffffffffffffffffff1673ffffffffffffffffffffffffffffffffffffffff16815260200190815260200160002060010160006101000a81548160ff02191690831515021790555034600360003373ffffffffffffffffffffffffffffffffffffffff1673ffffffffffffffffffffffffffffffffffffffff168152602001908152602001600020600201819055507fb3eccf73f39b1c07947c780b2b39df2a1bb058b4037b0a42d0881ca1a028a13233604051808273ffffffffffffffffffffffffffffffffffffffff1673ffffffffffffffffffffffffffffffffffffffff16815260200180602001828103825260128152602001807f4169726c696e65205265676973746572656400000000000000000000000000008152506020019250505060405180910390a150565b60016020528060005260406000206000915090505481565b33600360008273ffffffffffffffffffffffffffffffffffffffff1673ffffffffffffffffffffffffffffffffffffffff16815260200190815260200160002060010160009054906101000a900460ff161515610c27576040517f08c379a00000000000000000000000000000000000000000000000000000000081526004018080602001828103825260168152602001807f4169726c696e65206e6f7420616374697665207965740000000000000000000081525060200191505060405180910390fd5b82600360008273ffffffffffffffffffffffffffffffffffffffff1673ffffffffffffffffffffffffffffffffffffffff16815260200190815260200160002060010160009054906101000a900460ff161515610cec576040517f08c379a00000000000000000000000000000000000000000000000000000000081526004018080602001828103825260168152602001807f4169726c696e65206e6f7420616374697665207965740000000000000000000081525060200191505060405180910390fd5b60008484604051602001808373ffffffffffffffffffffffffffffffffffffffff1673ffffffffffffffffffffffffffffffffffffffff166c010000000000000000000000000281526014018281526020019250505060405160208183030381529060405280519060200120905080600160003373ffffffffffffffffffffffffffffffffffffffff1673ffffffffffffffffffffffffffffffffffffffff168152602001908152602001600020819055507f9549e8c16d9e94dec2c81f831f8d2ff9b8412f3ef2bd1758bfdaba09866e33ff85604051808273ffffffffffffffffffffffffffffffffffffffff1673ffffffffffffffffffffffffffffffffffffffff16815260200180602001828103825260158152602001807f5265636f72646564205375636365737366756c6c7900000000000000000000008152506020019250505060405180910390a1505050505056fea165627a7a72305820e24934e7c7f0bf271baa98eef026cc72900567b5b4c133200550f6fa48dc986d0029",
  "source": "pragma solidity ^0.5.0;\ncontract Consortium{\n    address payable public chairperson;\n    struct Airline{\n        bytes32 name;\n        bool isActive;\n        uint256 escrowAmount;\n    }\n    mapping(address => bytes32) public requests;\n    mapping(address => bytes32) public responses;\n    mapping(address => Airline) public airlines;\n    event Registered(address airline, string data);\n    event RequestRecorded(address airline, string data);\n    event ResponseRecorded(address airline, string data);\n    constructor() payable public{\n        chairperson = msg.sender;\n    }\n    modifier onlyChairperson(address sender){\n        require(sender==chairperson, \"Only chairperson can register\");\n        _;\n    }\n    modifier isNotActive(address airline){\n        require(!airlines[airline].isActive, \"Airline already present\");\n        _;\n    }\n    modifier isActive(address airline){\n        require(airlines[airline].isActive, \"Airline not active yet\");\n        _;\n    }\n    function registerAirline()payable public isNotActive(msg.sender){\n        airlines[msg.sender].isActive=true;\n        //airlines[msg.sender].name = name;\n        airlines[msg.sender].escrowAmount = msg.value;\n        emit Registered(msg.sender, \"Airline Registered\");\n    }\n    function unregisterAirline(address payable airline) payable public onlyChairperson(msg.sender) isActive(airline){\n        airlines[airline].isActive=false;\n        uint amount = airlines[airline].escrowAmount;\n        airlines[airline].escrowAmount=0;\n        airline.transfer(amount);\n    }\n    function recordRequests(address to, bytes32 details) public isActive(msg.sender) isActive(to){\n        bytes32 hash = keccak256(abi.encodePacked(to, details));\n        requests[msg.sender] = hash;\n        emit RequestRecorded(to, \"Recorded Successfully\");\n    }\n    function recordResponses(address to, bytes32 details) public isActive(msg.sender) isActive(to){\n        bytes32 hash = keccak256(abi.encodePacked(to, details));\n        responses[msg.sender] = hash;\n        emit ResponseRecorded(to, \"Recorded Successfully\");\n    }\n\n\n\n}\n",
  "sourcePath": "/Users/varshath/UB/Repos/ASK-Consortium/ASK-contract/contracts/Consortium.sol",
  "compiler": {
    "name": "solc",
    "version": "0.5.0+commit.1d4f565a.Emscripten.clang"
  },
  "schemaVersion": "3.0.1",
  "updatedAt": "2019-05-04T04:37:22.845Z",
  "devdoc": {
    "methods": {}
  },
  "userdoc": {
    "methods": {}
  }
}