{
  "contractName": "Consortium",
  "abi": [
    {
      "constant": true,
      "inputs": [
        {
          "name": "",
          "type": "address"
        }
      ],
      "name": "responses",
      "outputs": [
        {
          "name": "",
          "type": "bytes32"
        }
      ],
      "payable": false,
      "stateMutability": "view",
      "type": "function",
      "signature": "0x0ea65648"
    },
    {
      "constant": true,
      "inputs": [],
      "name": "chairperson",
      "outputs": [
        {
          "name": "",
          "type": "address"
        }
      ],
      "payable": false,
      "stateMutability": "view",
      "type": "function",
      "signature": "0x2e4176cf"
    },
    {
      "constant": true,
      "inputs": [
        {
          "name": "",
          "type": "address"
        }
      ],
      "name": "airlines",
      "outputs": [
        {
          "name": "name",
          "type": "bytes32"
        },
        {
          "name": "isActive",
          "type": "bool"
        },
        {
          "name": "escrowAmount",
          "type": "uint256"
        }
      ],
      "payable": false,
      "stateMutability": "view",
      "type": "function",
      "signature": "0x41684769"
    },
    {
      "constant": true,
      "inputs": [
        {
          "name": "",
          "type": "address"
        }
      ],
      "name": "requests",
      "outputs": [
        {
          "name": "",
          "type": "bytes32"
        }
      ],
      "payable": false,
      "stateMutability": "view",
      "type": "function",
      "signature": "0x74adad1d"
    },
    {
      "inputs": [],
      "payable": true,
      "stateMutability": "payable",
      "type": "constructor",
      "signature": "constructor"
    },
    {
      "anonymous": false,
      "inputs": [
        {
          "indexed": false,
          "name": "airline",
          "type": "address"
        },
        {
          "indexed": false,
          "name": "data",
          "type": "string"
        }
      ],
      "name": "Registered",
      "type": "event",
      "signature": "0xb3eccf73f39b1c07947c780b2b39df2a1bb058b4037b0a42d0881ca1a028a132"
    },
    {
      "anonymous": false,
      "inputs": [
        {
          "indexed": false,
          "name": "airline",
          "type": "address"
        },
        {
          "indexed": false,
          "name": "data",
          "type": "uint256"
        }
      ],
      "name": "Unregistered",
      "type": "event",
      "signature": "0x15f7469572dc44ee54c08cc4adf4e1031d7b6254626e8894015195a560039d09"
    },
    {
      "anonymous": false,
      "inputs": [
        {
          "indexed": false,
          "name": "airline",
          "type": "address"
        },
        {
          "indexed": false,
          "name": "data",
          "type": "string"
        }
      ],
      "name": "RequestRecorded",
      "type": "event",
      "signature": "0x9549e8c16d9e94dec2c81f831f8d2ff9b8412f3ef2bd1758bfdaba09866e33ff"
    },
    {
      "anonymous": false,
      "inputs": [
        {
          "indexed": false,
          "name": "airline",
          "type": "address"
        },
        {
          "indexed": false,
          "name": "data",
          "type": "string"
        }
      ],
      "name": "ResponseRecorded",
      "type": "event",
      "signature": "0x49284608e2bcec158fa3c9ebd3334801dea6d98fbbb484600071dca30625f6d1"
    },
    {
      "anonymous": false,
      "inputs": [
        {
          "indexed": false,
          "name": "lender",
          "type": "address"
        },
        {
          "indexed": false,
          "name": "borrower",
          "type": "address"
        }
      ],
      "name": "Settled",
      "type": "event",
      "signature": "0x3352c33cf4ae7f0a850208dc1ce7e1462af666d38c52ae55a504c89bd6d26c30"
    },
    {
      "constant": false,
      "inputs": [],
      "name": "registerAirline",
      "outputs": [],
      "payable": true,
      "stateMutability": "payable",
      "type": "function",
      "signature": "0x63e29a3f"
    },
    {
      "constant": false,
      "inputs": [
        {
          "name": "airline",
          "type": "address"
        }
      ],
      "name": "unregisterAirline",
      "outputs": [],
      "payable": true,
      "stateMutability": "payable",
      "type": "function",
      "signature": "0x183c164e"
    },
    {
      "constant": false,
      "inputs": [
        {
          "name": "to",
          "type": "address"
        },
        {
          "name": "details",
          "type": "bytes32"
        }
      ],
      "name": "recordRequests",
      "outputs": [],
      "payable": false,
      "stateMutability": "nonpayable",
      "type": "function",
      "signature": "0xb032d243"
    },
    {
      "constant": false,
      "inputs": [
        {
          "name": "to",
          "type": "address"
        },
        {
          "name": "details",
          "type": "bytes32"
        }
      ],
      "name": "recordResponses",
      "outputs": [],
      "payable": false,
      "stateMutability": "nonpayable",
      "type": "function",
      "signature": "0x3807566f"
    },
    {
      "constant": false,
      "inputs": [
        {
          "name": "lender",
          "type": "address"
        },
        {
          "name": "amount",
          "type": "uint256"
        }
      ],
      "name": "settleBalances",
      "outputs": [],
      "payable": false,
      "stateMutability": "nonpayable",
      "type": "function",
      "signature": "0xbefa7bcc"
    }
  ],
  "bytecode": "0x6080604052336000806101000a81548173ffffffffffffffffffffffffffffffffffffffff021916908373ffffffffffffffffffffffffffffffffffffffff160217905550611534806100536000396000f3fe608060405260043610610099576000357c0100000000000000000000000000000000000000000000000000000000900463ffffffff1680630ea656481461009e578063183c164e146101035780632e4176cf146101475780633807566f1461019e57806341684769146101f957806363e29a3f1461027057806374adad1d1461027a578063b032d243146102df578063befa7bcc1461033a575b600080fd5b3480156100aa57600080fd5b506100ed600480360360208110156100c157600080fd5b81019080803573ffffffffffffffffffffffffffffffffffffffff169060200190929190505050610395565b6040518082815260200191505060405180910390f35b6101456004803603602081101561011957600080fd5b81019080803573ffffffffffffffffffffffffffffffffffffffff1690602001909291905050506103ad565b005b34801561015357600080fd5b5061015c6107ba565b604051808273ffffffffffffffffffffffffffffffffffffffff1673ffffffffffffffffffffffffffffffffffffffff16815260200191505060405180910390f35b3480156101aa57600080fd5b506101f7600480360360408110156101c157600080fd5b81019080803573ffffffffffffffffffffffffffffffffffffffff169060200190929190803590602001909291905050506107df565b005b34801561020557600080fd5b506102486004803603602081101561021c57600080fd5b81019080803573ffffffffffffffffffffffffffffffffffffffff169060200190929190505050610b88565b6040518084815260200183151515158152602001828152602001935050505060405180910390f35b610278610bbf565b005b34801561028657600080fd5b506102c96004803603602081101561029d57600080fd5b81019080803573ffffffffffffffffffffffffffffffffffffffff169060200190929190505050610dc6565b6040518082815260200191505060405180910390f35b3480156102eb57600080fd5b506103386004803603604081101561030257600080fd5b81019080803573ffffffffffffffffffffffffffffffffffffffff16906020019092919080359060200190929190505050610dde565b005b34801561034657600080fd5b506103936004803603604081101561035d57600080fd5b81019080803573ffffffffffffffffffffffffffffffffffffffff16906020019092919080359060200190929190505050611187565b005b60026020528060005260406000206000915090505481565b336000809054906101000a900473ffffffffffffffffffffffffffffffffffffffff1673ffffffffffffffffffffffffffffffffffffffff168173ffffffffffffffffffffffffffffffffffffffff16141515610472576040517f08c379a000000000000000000000000000000000000000000000000000000000815260040180806020018281038252601d8152602001807f4f6e6c79206368616972706572736f6e2063616e20726567697374657200000081525060200191505060405180910390fd5b81600360008273ffffffffffffffffffffffffffffffffffffffff1673ffffffffffffffffffffffffffffffffffffffff16815260200190815260200160002060010160009054906101000a900460ff161515610537576040517f08c379a00000000000000000000000000000000000000000000000000000000081526004018080602001828103825260168152602001807f4169726c696e65206e6f7420616374697665207965740000000000000000000081525060200191505060405180910390fd5b6000600360008573ffffffffffffffffffffffffffffffffffffffff1673ffffffffffffffffffffffffffffffffffffffff1681526020019081526020016000206002015410151515610618576040517f08c379a000000000000000000000000000000000000000000000000000000000815260040180806020018281038252603a8152602001807f596f7520686176652070656e64696e672062616c616e6365732c20796f75206381526020017f616e6e6f74206c656176652074686520636f6e736f727469756d00000000000081525060400191505060405180910390fd5b6000600360008573ffffffffffffffffffffffffffffffffffffffff1673ffffffffffffffffffffffffffffffffffffffff16815260200190815260200160002060010160006101000a81548160ff0219169083151502179055506000600360008573ffffffffffffffffffffffffffffffffffffffff1673ffffffffffffffffffffffffffffffffffffffff1681526020019081526020016000206002015490506000600360008673ffffffffffffffffffffffffffffffffffffffff1673ffffffffffffffffffffffffffffffffffffffff168152602001908152602001600020600201819055508373ffffffffffffffffffffffffffffffffffffffff166108fc829081150290604051600060405180830381858888f19350505050158015610748573d6000803e3d6000fd5b507f15f7469572dc44ee54c08cc4adf4e1031d7b6254626e8894015195a560039d093382604051808373ffffffffffffffffffffffffffffffffffffffff1673ffffffffffffffffffffffffffffffffffffffff1681526020018281526020019250505060405180910390a150505050565b6000809054906101000a900473ffffffffffffffffffffffffffffffffffffffff1681565b33600360008273ffffffffffffffffffffffffffffffffffffffff1673ffffffffffffffffffffffffffffffffffffffff16815260200190815260200160002060010160009054906101000a900460ff1615156108a4576040517f08c379a00000000000000000000000000000000000000000000000000000000081526004018080602001828103825260168152602001807f4169726c696e65206e6f7420616374697665207965740000000000000000000081525060200191505060405180910390fd5b82600360008273ffffffffffffffffffffffffffffffffffffffff1673ffffffffffffffffffffffffffffffffffffffff16815260200190815260200160002060010160009054906101000a900460ff161515610969576040517f08c379a00000000000000000000000000000000000000000000000000000000081526004018080602001828103825260168152602001807f4169726c696e65206e6f7420616374697665207965740000000000000000000081525060200191505060405180910390fd5b8373ffffffffffffffffffffffffffffffffffffffff163373ffffffffffffffffffffffffffffffffffffffff1614151515610a33576040517f08c379a00000000000000000000000000000000000000000000000000000000081526004018080602001828103825260218152602001807f53656e6465722063616e6e6f742062652073616d65206173207265636569766581526020017f720000000000000000000000000000000000000000000000000000000000000081525060400191505060405180910390fd5b60008484604051602001808373ffffffffffffffffffffffffffffffffffffffff1673ffffffffffffffffffffffffffffffffffffffff166c010000000000000000000000000281526014018281526020019250505060405160208183030381529060405280519060200120905080600260003373ffffffffffffffffffffffffffffffffffffffff1673ffffffffffffffffffffffffffffffffffffffff168152602001908152602001600020819055507f49284608e2bcec158fa3c9ebd3334801dea6d98fbbb484600071dca30625f6d185604051808273ffffffffffffffffffffffffffffffffffffffff1673ffffffffffffffffffffffffffffffffffffffff16815260200180602001828103825260158152602001807f5265636f72646564205375636365737366756c6c7900000000000000000000008152506020019250505060405180910390a15050505050565b60036020528060005260406000206000915090508060000154908060010160009054906101000a900460ff16908060020154905083565b33600360008273ffffffffffffffffffffffffffffffffffffffff1673ffffffffffffffffffffffffffffffffffffffff16815260200190815260200160002060010160009054906101000a900460ff16151515610c85576040517f08c379a00000000000000000000000000000000000000000000000000000000081526004018080602001828103825260178152602001807f4169726c696e6520616c72656164792070726573656e7400000000000000000081525060200191505060405180910390fd5b6001600360003373ffffffffffffffffffffffffffffffffffffffff1673ffffffffffffffffffffffffffffffffffffffff16815260200190815260200160002060010160006101000a81548160ff02191690831515021790555034600360003373ffffffffffffffffffffffffffffffffffffffff1673ffffffffffffffffffffffffffffffffffffffff168152602001908152602001600020600201819055507fb3eccf73f39b1c07947c780b2b39df2a1bb058b4037b0a42d0881ca1a028a13233604051808273ffffffffffffffffffffffffffffffffffffffff1673ffffffffffffffffffffffffffffffffffffffff16815260200180602001828103825260128152602001807f4169726c696e65205265676973746572656400000000000000000000000000008152506020019250505060405180910390a150565b60016020528060005260406000206000915090505481565b33600360008273ffffffffffffffffffffffffffffffffffffffff1673ffffffffffffffffffffffffffffffffffffffff16815260200190815260200160002060010160009054906101000a900460ff161515610ea3576040517f08c379a00000000000000000000000000000000000000000000000000000000081526004018080602001828103825260168152602001807f4169726c696e65206e6f7420616374697665207965740000000000000000000081525060200191505060405180910390fd5b82600360008273ffffffffffffffffffffffffffffffffffffffff1673ffffffffffffffffffffffffffffffffffffffff16815260200190815260200160002060010160009054906101000a900460ff161515610f68576040517f08c379a00000000000000000000000000000000000000000000000000000000081526004018080602001828103825260168152602001807f4169726c696e65206e6f7420616374697665207965740000000000000000000081525060200191505060405180910390fd5b8373ffffffffffffffffffffffffffffffffffffffff163373ffffffffffffffffffffffffffffffffffffffff1614151515611032576040517f08c379a00000000000000000000000000000000000000000000000000000000081526004018080602001828103825260218152602001807f53656e6465722063616e6e6f742062652073616d65206173207265636569766581526020017f720000000000000000000000000000000000000000000000000000000000000081525060400191505060405180910390fd5b60008484604051602001808373ffffffffffffffffffffffffffffffffffffffff1673ffffffffffffffffffffffffffffffffffffffff166c010000000000000000000000000281526014018281526020019250505060405160208183030381529060405280519060200120905080600160003373ffffffffffffffffffffffffffffffffffffffff1673ffffffffffffffffffffffffffffffffffffffff168152602001908152602001600020819055507f9549e8c16d9e94dec2c81f831f8d2ff9b8412f3ef2bd1758bfdaba09866e33ff85604051808273ffffffffffffffffffffffffffffffffffffffff1673ffffffffffffffffffffffffffffffffffffffff16815260200180602001828103825260158152602001807f5265636f72646564205375636365737366756c6c7900000000000000000000008152506020019250505060405180910390a15050505050565b33600360008273ffffffffffffffffffffffffffffffffffffffff1673ffffffffffffffffffffffffffffffffffffffff16815260200190815260200160002060010160009054906101000a900460ff16151561124c576040517f08c379a00000000000000000000000000000000000000000000000000000000081526004018080602001828103825260168152602001807f4169726c696e65206e6f7420616374697665207965740000000000000000000081525060200191505060405180910390fd5b82600360008273ffffffffffffffffffffffffffffffffffffffff1673ffffffffffffffffffffffffffffffffffffffff16815260200190815260200160002060010160009054906101000a900460ff161515611311576040517f08c379a00000000000000000000000000000000000000000000000000000000081526004018080602001828103825260168152602001807f4169726c696e65206e6f7420616374697665207965740000000000000000000081525060200191505060405180910390fd5b82600360003373ffffffffffffffffffffffffffffffffffffffff1673ffffffffffffffffffffffffffffffffffffffff16815260200190815260200160002060020154101515156113cb576040517f08c379a00000000000000000000000000000000000000000000000000000000081526004018080602001828103825260148152602001807f496e73756666696369656e742042616c616e636500000000000000000000000081525060200191505060405180910390fd5b82600360003373ffffffffffffffffffffffffffffffffffffffff1673ffffffffffffffffffffffffffffffffffffffff1681526020019081526020016000206002016000828254039250508190555082600360008673ffffffffffffffffffffffffffffffffffffffff1673ffffffffffffffffffffffffffffffffffffffff168152602001908152602001600020600201600082825401925050819055507f3352c33cf4ae7f0a850208dc1ce7e1462af666d38c52ae55a504c89bd6d26c303385604051808373ffffffffffffffffffffffffffffffffffffffff1673ffffffffffffffffffffffffffffffffffffffff1681526020018273ffffffffffffffffffffffffffffffffffffffff1673ffffffffffffffffffffffffffffffffffffffff1681526020019250505060405180910390a15050505056fea165627a7a7230582061adb7e97090244ab69acce6921388bbf2112b8bde3e96b2834a8b60caddaeef0029",
  "source": "pragma solidity ^0.5.0;\ncontract Consortium{\n    address payable public chairperson;\n    struct Airline{\n        bytes32 name;\n        bool isActive;\n        uint256 escrowAmount;\n    }\n    mapping(address => bytes32) public requests;\n    mapping(address => bytes32) public responses;\n    mapping(address => Airline) public airlines;\n    event Registered(address airline, string data);\n    event Unregistered(address airline, uint data);\n    event RequestRecorded(address airline, string data);\n    event ResponseRecorded(address airline, string data);\n    event Settled(address lender, address borrower);\n    constructor() payable public{\n        chairperson = msg.sender;\n    }\n    modifier onlyChairperson(address sender){\n        require(sender==chairperson, \"Only chairperson can register\");\n        _;\n    }\n    modifier isNotActive(address airline){\n        require(!airlines[airline].isActive, \"Airline already present\");\n        _;\n    }\n    modifier isActive(address airline){\n        require(airlines[airline].isActive, \"Airline not active yet\");\n        _;\n    }\n    function registerAirline()payable public isNotActive(msg.sender){\n        airlines[msg.sender].isActive=true;\n        //airlines[msg.sender].name = name;\n        airlines[msg.sender].escrowAmount = msg.value;\n        emit Registered(msg.sender, \"Airline Registered\");\n    }\n    function unregisterAirline(address payable airline) payable public onlyChairperson(msg.sender) isActive(airline){\n        require(airlines[airline].escrowAmount>=0, \"You have pending balances, you cannot leave the consortium\");\n        airlines[airline].isActive=false;\n        uint amount = airlines[airline].escrowAmount;\n        airlines[airline].escrowAmount=0;\n        airline.transfer(amount);\n        emit Unregistered(msg.sender, amount);\n    }\n    function recordRequests(address to, bytes32 details) public isActive(msg.sender) isActive(to){\n        require(msg.sender!=to, \"Sender cannot be same as receiver\");\n        bytes32 hash = keccak256(abi.encodePacked(to, details));\n        requests[msg.sender] = hash;\n        emit RequestRecorded(to, \"Recorded Successfully\");\n    }\n    function recordResponses(address to, bytes32 details) public isActive(msg.sender) isActive(to){\n        require(msg.sender!=to, \"Sender cannot be same as receiver\");\n        bytes32 hash = keccak256(abi.encodePacked(to, details));\n        responses[msg.sender] = hash;\n        emit ResponseRecorded(to, \"Recorded Successfully\");\n    }\n    function settleBalances(address lender, uint amount) public isActive(msg.sender) isActive(lender){\n        require(airlines[msg.sender].escrowAmount>=amount, \"Insufficient Balance\");\n        airlines[msg.sender].escrowAmount-=amount;\n        airlines[lender].escrowAmount+=amount;\n        emit Settled(msg.sender, lender);\n    }\n\n\n}\n",
  "sourcePath": "/Users/varshath/UB/Repos/ASK-Consortium/ASK-contract/contracts/Consortium.sol",
  "compiler": {
    "name": "solc",
    "version": "0.5.0+commit.1d4f565a.Emscripten.clang"
  },
  "schemaVersion": "3.0.1",
  "updatedAt": "2019-05-07T16:42:12.580Z",
  "devdoc": {
    "methods": {}
  },
  "userdoc": {
    "methods": {}
  }
}