{
  "contractName": "Counter",
  "abi": [
    {
      "constant": true,
      "inputs": [],
      "name": "storedData",
      "outputs": [
        {
          "name": "",
          "type": "uint256"
        }
      ],
      "payable": false,
      "stateMutability": "view",
      "type": "function",
      "signature": "0x2a1afcd9"
    },
    {
      "anonymous": false,
      "inputs": [
        {
          "indexed": false,
          "name": "x",
          "type": "uint256"
        }
      ],
      "name": "Incremented",
      "type": "event",
      "signature": "0x20d8a6f5a693f9d1d627a598e8820f7a55ee74c183aa8f1a30e8d4e8dd9a8d84"
    },
    {
      "constant": false,
      "inputs": [
        {
          "name": "x",
          "type": "uint256"
        }
      ],
      "name": "initialize",
      "outputs": [],
      "payable": false,
      "stateMutability": "nonpayable",
      "type": "function",
      "signature": "0xfe4b84df"
    },
    {
      "constant": true,
      "inputs": [],
      "name": "get",
      "outputs": [
        {
          "name": "",
          "type": "uint256"
        }
      ],
      "payable": false,
      "stateMutability": "view",
      "type": "function",
      "signature": "0x6d4ce63c"
    },
    {
      "constant": false,
      "inputs": [
        {
          "name": "n",
          "type": "uint256"
        }
      ],
      "name": "increment",
      "outputs": [],
      "payable": false,
      "stateMutability": "nonpayable",
      "type": "function",
      "signature": "0x7cf5dab0"
    },
    {
      "constant": false,
      "inputs": [
        {
          "name": "n",
          "type": "uint256"
        }
      ],
      "name": "decrement",
      "outputs": [],
      "payable": false,
      "stateMutability": "nonpayable",
      "type": "function",
      "signature": "0x3a9ebefd"
    }
  ],
  "bytecode": "0x608060405234801561001057600080fd5b50610213806100206000396000f3fe60806040526004361061006d576000357c0100000000000000000000000000000000000000000000000000000000900463ffffffff1680632a1afcd9146100725780633a9ebefd1461009d5780636d4ce63c146100d85780637cf5dab014610103578063fe4b84df1461013e575b600080fd5b34801561007e57600080fd5b50610087610179565b6040518082815260200191505060405180910390f35b3480156100a957600080fd5b506100d6600480360360208110156100c057600080fd5b810190808035906020019092919050505061017f565b005b3480156100e457600080fd5b506100ed61018d565b6040518082815260200191505060405180910390f35b34801561010f57600080fd5b5061013c6004803603602081101561012657600080fd5b8101908080359060200190929190505050610196565b005b34801561014a57600080fd5b506101776004803603602081101561016157600080fd5b81019080803590602001909291905050506101dd565b005b60005481565b806000540360008190555050565b60008054905090565b80600054016000819055507f20d8a6f5a693f9d1d627a598e8820f7a55ee74c183aa8f1a30e8d4e8dd9a8d846000546040518082815260200191505060405180910390a150565b806000819055505056fea165627a7a7230582080f1e9c32a3b91148f2b9cc2c1cfd7624783ba85cdf9a9e65f2dc65527e400be0029",
  "source": "pragma solidity ^0.5.0;\n// imagine a big integer counter that the whole world could share\ncontract Counter {\n    uint public storedData;\n    event Incremented(uint x);\n    function initialize (uint x) public {\n        storedData = x;\n    }\n\n    function get() view public returns (uint) {\n        return storedData;\n    }\n\n    function increment (uint n) public {\n        storedData = storedData + n;\n        emit Incremented(storedData);\n        return;\n    }\n\n    function decrement (uint n) public {\n        storedData = storedData - n;\n        return;\n    }\n}\n",
  "sourcePath": "/Users/varshath/UB/Repos/ASK-Consortium/ASK-contract/contracts/Counter.sol",
  "compiler": {
    "name": "solc",
    "version": "0.5.0+commit.1d4f565a.Emscripten.clang"
  },
  "schemaVersion": "3.0.1",
  "updatedAt": "2019-05-04T04:37:22.567Z",
  "devdoc": {
    "methods": {}
  },
  "userdoc": {
    "methods": {}
  }
}